{
  "_format": "hh-sol-artifact-1",
  "contractName": "TokenMigration",
  "sourceName": "contracts/MigrationToken.sol",
  "abi": [
    {
      "inputs": [
        {
          "internalType": "address",
          "name": "_oldToken",
          "type": "address"
        },
        {
          "internalType": "address",
          "name": "_newToken",
          "type": "address"
        }
      ],
      "stateMutability": "nonpayable",
      "type": "constructor"
    },
    {
      "inputs": [
        {
          "internalType": "uint256",
          "name": "amount",
          "type": "uint256"
        }
      ],
      "name": "migrate",
      "outputs": [],
      "stateMutability": "nonpayable",
      "type": "function"
    },
    {
      "inputs": [],
      "name": "newToken",
      "outputs": [
        {
          "internalType": "contract NewToken",
          "name": "",
          "type": "address"
        }
      ],
      "stateMutability": "view",
      "type": "function"
    },
    {
      "inputs": [],
      "name": "oldToken",
      "outputs": [
        {
          "internalType": "contract OldToken",
          "name": "",
          "type": "address"
        }
      ],
      "stateMutability": "view",
      "type": "function"
    }
  ],
  "bytecode": "0x608060405234801561001057600080fd5b506040516106ee3803806106ee8339818101604052810190610032919061011d565b816000806101000a81548173ffffffffffffffffffffffffffffffffffffffff021916908373ffffffffffffffffffffffffffffffffffffffff16021790555080600160006101000a81548173ffffffffffffffffffffffffffffffffffffffff021916908373ffffffffffffffffffffffffffffffffffffffff160217905550505061015d565b600080fd5b600073ffffffffffffffffffffffffffffffffffffffff82169050919050565b60006100ea826100bf565b9050919050565b6100fa816100df565b811461010557600080fd5b50565b600081519050610117816100f1565b92915050565b60008060408385031215610134576101336100ba565b5b600061014285828601610108565b925050602061015385828601610108565b9150509250929050565b6105828061016c6000396000f3fe608060405234801561001057600080fd5b50600436106100415760003560e01c8063454b060814610046578063b31c710a14610062578063c42bd05a14610080575b600080fd5b610060600480360381019061005b91906102a3565b61009e565b005b61006a61021e565b604051610077919061034f565b60405180910390f35b610088610242565b604051610095919061038b565b60405180910390f35b8060008054906101000a900473ffffffffffffffffffffffffffffffffffffffff1673ffffffffffffffffffffffffffffffffffffffff166370a08231336040518263ffffffff1660e01b81526004016100f891906103c7565b602060405180830381865afa158015610115573d6000803e3d6000fd5b505050506040513d601f19601f8201168201806040525081019061013991906103f7565b101561017a576040517f08c379a000000000000000000000000000000000000000000000000000000000815260040161017190610481565b60405180910390fd5b60008054906101000a900473ffffffffffffffffffffffffffffffffffffffff1673ffffffffffffffffffffffffffffffffffffffff166323b872dd3330846040518463ffffffff1660e01b81526004016101d7939291906104b0565b6020604051808303816000875af11580156101f6573d6000803e3d6000fd5b505050506040513d601f19601f8201168201806040525081019061021a919061051f565b5050565b60008054906101000a900473ffffffffffffffffffffffffffffffffffffffff1681565b600160009054906101000a900473ffffffffffffffffffffffffffffffffffffffff1681565b600080fd5b6000819050919050565b6102808161026d565b811461028b57600080fd5b50565b60008135905061029d81610277565b92915050565b6000602082840312156102b9576102b8610268565b5b60006102c78482850161028e565b91505092915050565b600073ffffffffffffffffffffffffffffffffffffffff82169050919050565b6000819050919050565b600061031561031061030b846102d0565b6102f0565b6102d0565b9050919050565b6000610327826102fa565b9050919050565b60006103398261031c565b9050919050565b6103498161032e565b82525050565b60006020820190506103646000830184610340565b92915050565b60006103758261031c565b9050919050565b6103858161036a565b82525050565b60006020820190506103a0600083018461037c565b92915050565b60006103b1826102d0565b9050919050565b6103c1816103a6565b82525050565b60006020820190506103dc60008301846103b8565b92915050565b6000815190506103f181610277565b92915050565b60006020828403121561040d5761040c610268565b5b600061041b848285016103e2565b91505092915050565b600082825260208201905092915050565b7f4e6f7420656e6f756768206f6c6420746f6b656e730000000000000000000000600082015250565b600061046b601583610424565b915061047682610435565b602082019050919050565b6000602082019050818103600083015261049a8161045e565b9050919050565b6104aa8161026d565b82525050565b60006060820190506104c560008301866103b8565b6104d260208301856103b8565b6104df60408301846104a1565b949350505050565b60008115159050919050565b6104fc816104e7565b811461050757600080fd5b50565b600081519050610519816104f3565b92915050565b60006020828403121561053557610534610268565b5b60006105438482850161050a565b9150509291505056fea2646970667358221220a3a8336cea3063993d826213e1cbf815edeba27f97a19bf9074ff67f6b0559c264736f6c634300081b0033",
  "linkReferences": {},
  "deployedLinkReferences": {}
}